:020000040800F2
:1000000000500020192A0008B11C0008B31C000889
:10001000B51C0008B71C0008B91C0008000000004F
:10002000000000000000000000000000BB1C0008F1
:10003000BD1C000800000000BF1C0008C11C000817
:10004000612A0008612A0008612A0008612A000864
:10005000612A0008612A0008612A0008612A000854
:10006000612A0008612A0008612A0008612A000844
:10007000612A0008612A0008612A0008612A000834
:10008000612A0008612A0008612A0008612A000824
:10009000612A0008612A0008612A0008612A000814
:1000A000612A0008612A0008612A0008612A000804
:1000B000CD1C0008612A0008DD1C0008612A000828
:1000C000612A0008612A0008612A0008612A0008E4
:1000D000612A0008612A0008612A0008612A0008D4
:1000E000612A0008612A0008612A00080000000057
:1000F0000000000000000000000000000000000000
:0C01000000000000000000005FF808F1A3
:10010C0010B5054C237833B9044B13B10448AFF345
:10011C0000800123237010BD9C0000200000000013
:10012C00EC32000808B5034B1BB103490348AFF38D
:10013C00008008BD00000000A0000020EC32000888
:10014C0010B504460E4B18784FF47A73B3FBF0F3EA
:10015C000C4A1068B0FBF3F000F08CF868B90F2C67
:10016C0001D901200AE0002221464FF0FF3000F0B7
:10017C0041F8034B5C60002000E0012010BD00BF83
:10018C00000000200800002008B5074A136843F05F
:10019C0010031360032000F01BF80020FFF7D0FFC2
:1001AC0001F0A4FC002008BD00200240034A1168A5
:1001BC00034B1B780B441360704700BF1C010020DD
:1001CC0000000020014B1868704700BF1C01002084
:1001DC00074AD36823F4E0631B041B0C000200F4F1
:1001EC00E060184340F0BF6040F40030D0607047CE
:1001FC0000ED00E030B4174BDB68C3F30223C3F10E
:10020C000704042C28BF04241D1D062D18D9033BFC
:10021C004FF0FF3505FA04F421EA0401994005FA80
:10022C0003F322EA0303194300280BDB0901C9B2CB
:10023C0000F1604000F5614080F8001330BC70475D
:10024C000023E5E700F00F000901C9B2024B195475
:10025C00F4E700BF00ED00E014ED00E000F01F0239
:10026C00400901239340024A42F82030704700BFF6
:10027C0000E100E00138B0F1807F0AD2064B5860F3
:10028C00064AF02182F823100020986007221A6099
:10029C0070470120704700BF10E000E000ED00E067
:1002AC00042805D0054A136823F004031360704733
:1002BC00024A136843F004031360704710E000E037
:1002CC00704708B5FFF7FCFF08BD0000F0B482B022
:1002DC0000263546A1E0002C59D0012C00D1CE6867
:1002EC00FF2B68D88446FF2B68D8AC00DCF80020C4
:1002FC000F27A74022EA070206FA04F42243CCF89F
:10030C0000204A6812F0805F00F086805E4A946993
:10031C0044F001049461926902F001020192019A85
:10032C00AC08A71C594A52F8272005F00307BF0058
:10033C004FF00F0C0CFA07FC22EA0C0C544A9042BA
:10034C0042D002F5806290427FD002F580629042EA
:10035C007DD002F58062904234D0042235E04D4FBE
:10036C00BC4214D00BD94C4FBC4210D007F580378F
:10037C00BC420CD0A7F58017BC42B1D107E0A7F561
:10038C008017BC4203D007F58037BC42A8D18C68DB
:10039C007CB1012C08D042610826A1E7CE68083652
:1003AC009EE7CE680C369BE70261082698E700268C
:1003BC0096E7042694E700F1040C94E7A5F10804F1
:1003CC00A40093E7032200E00022BA4042EA0C02A8
:1003DC0002342E4F47F824204A6812F4803F38D05C
:1003EC002E4C22681A4322604A6812F4003F36D021
:1003FC002A4C62681A4362604A6812F4801F34D037
:10040C00264CA2681A43A2604A6812F4001F32D02C
:10041C00224CE2681343E36001350F2D31D80122E1
:10042C00AA400B6813409A42F6D14C68122CB8D0F3
:10043C0095D8022CB2D07FF64EAF032CB7D0112C2E
:10044C007FF44EAFCE6804364AE70122BDE70222A4
:10045C00BBE7124C226822EA03022260C4E70F4C6D
:10046C00626822EA03026260C6E70C4CA26822EAC8
:10047C000302A260C8E7094CE26822EA0303E360C6
:10048C00CAE702B0F0BC7047001002400000014007
:10049C000008014000002110000031100004014050
:1004AC008368194201D1002070470120704712B9AE
:1004BC0009040161704701617047C3685940C1600C
:1004CC00704703685A6912F4806F0DD06FF4806224
:1004DC005A610423036400230363202280F83D2027
:1004EC0080F83C300120704700207047F8B5064674
:1004FC000C4617461D461EE02DB1FFF763FE069B0A
:10050C00C01AA84217D900233363202286F83D2055
:10051C0086F83E3086F83C3003201AE033685B697D
:10052C0024EA03039BB2B3FA83F35B099F420FD116
:10053C00B5F1FF3FE0D1C4F30743012BEED0336894
:10054C009B6924EA03039BB2B3FA83F35B09EDE7DF
:10055C000020F8BDF8B504460D4616461F4632E09D
:10056C001A6842F400721A6023686FF480625A6150
:10057C000423236400232363202284F83D2084F881
:10058C003C3001202DE026B1FFF71CFEC01BB04211
:10059C0019D900232363202284F83D2084F83C30B1
:1005AC0003201EE023685B6925EA03039BB200333A
:1005BC0018BF0123A3B123685A6912F4806FCFD1FD
:1005CC00B6F1FF3FDFD1C5F30743012BEAD0236817
:1005DC009B6925EA03039BB2003318BF0123E9E7AB
:1005EC000020F8BDF0B583B004460D4616461F46F4
:1005FC00C36A042B0DD0012B0BD013F5803F08D010
:10060C00036B122B0AD10268136843F480731360D6
:10061C0004E02268136843F4807313600097334638
:10062C0000224FF001112046FFF760FF58BB2369F1
:10063C00B3F5804F10D1236805F0FE051D613B46D4
:10064C00324615492046FFF785FF0346E0B1236C7F
:10065C00042B1ED1012317E0EB11226803F00603D3
:10066C0043F0F00313613B4632460C492046FFF73A
:10067C0071FF20B1236C042B09D1012304E0236802
:10068C00EDB21D61DBE70323184603B0F0BD032375
:10069C00FAE70323F8E700BF02000100080001009D
:1006AC0070B504460D46164623685B6913F0800F3F
:1006BC0019D12046FFF705FFB8B9B5F1FF3FF3D0CC
:1006CC0025B1FFF77FFD801BA842EDD9236C43F0C9
:1006DC002003236400232363202284F83D2084F824
:1006EC003C30032000E0002070BD0120FCE770B519
:1006FC0004460D46164623685B6913F0040F19D1A6
:10070C002046FFF7DEFEB8B9B5F1FF3FF3D025B1B7
:10071C00FFF758FD801BA842EDD9236C43F0200352
:10072C00236400232363202284F83D2084F83C308A
:10073C00032000E0002070BD0120FCE7002800F041
:10074C00A28038B5044690F83D30002B4FD02423BE
:10075C0084F83D302268136823F00103136000F025
:10076C0061FC62684A4B9A4246D84A4B98428CBF0D
:10077C0000230123002B40F08880474BA3FB002370
:10078C009B0C226853606168414A91423AD801330C
:10079C002268136261683E4B99423DD8431E490062
:1007AC00B3FBF1F30133C3F30B03042B38BF042366
:1007BC002268D361E369216A22680B4313602369C1
:1007CC00E16822680B4393606369A16922680B435B
:1007DC00D3602268136843F0010313600020206487
:1007EC00202384F83D30206384F83E0038BD80F827
:1007FC003C3001F0CBF9AAE7284B98428CBF002380
:10080C000123B7E74FF4967202FB03F3244AA2FBD1
:10081C0003239B090133BBE7A368BBB9421E01EB61
:10082C004105B2FBF5F20132C2F30B02B2FA82F2CD
:10083C00520932BBC3B9013801EB4103B0FBF3F3EE
:10084C000133C3F30B0343F40043B1E7421E01EB46
:10085C00810505EB8505B2FBF5F20132C2F30B0203
:10086C00B2FA82F25209E4E7013801EB810303EB9F
:10087C008303B0FBF3F30133C3F30B0343F44043A3
:10088C0096E7012394E7012070470120AEE700BFF3
:10089C00A08601007F841E0083DE1B43FF083D0001
:1008AC00D34D62102DE9F04184B004460E469046BB
:1008BC001F46FFF787FC94F83D30DBB2202B04D0A9
:1008CC000226304604B0BDE8F0810546009019239D
:1008DC00012254492046FFF709FE002840F0998078
:1008EC0094F83C30012B00F09680012384F83C30C6
:1008FC0023681A6812F0010F03D11A6842F0010242
:10090C001A602268136823F400631360212384F8AF
:10091C003D30102384F83E3000232364C4F8248037
:10092C006785A3F58033E362638D23852B460A9A92
:10093C0031462046FFF756FE064660B1236C042B69
:10094C0004D1002384F83C300126BAE7002384F854
:10095C003C300326B5E70023039323685A690392BE
:10096C009B690393039B10E0236C042B55D12268E5
:10097C00136843F4007313600126A2E72A460A9910
:10098C002046FFF7B4FE00282BD1238D002B32D04C
:10099C002A460A992046FFF783FE0028E4D1636AB1
:1009AC005A1C626222681B781361638D013B9BB2F7
:1009BC006385238D013B9BB223852268516911F01D
:1009CC00040FDBD0002BD9D0636A591C61621B78F1
:1009DC001361638D013B9BB26385238D013B2385A2
:1009EC00CCE7236C042B1AD12268136843F40073F0
:1009FC001360012665E72268136843F400731360E3
:100A0C00202384F83D30002384F83E3084F83C30B9
:100A1C0057E7022655E7022653E7032651E703263C
:100A2C004FE700BF0200100082B0084B1B68084A59
:100A3C00A2FB03235B0A00FB03F0019000BF019BA8
:100A4C005A1E0192002BF9D102B070470800002009
:100A5C00D34D621070B582B00446036813F0010FD9
:100A6C002CD0AB4B5B6803F00C03042B1DD0A84BB4
:100A7C005B6803F00C03082B12D06368B3F5803F5E
:100A8C0041D0002B55D103F1804303F504331A6890
:100A9C0022F480321A601A6822F480221A6037E03D
:100AAC009B4B5B6813F4803FE7D0994B1B6813F4A6
:100ABC00003F03D06368002B00F0AE81236813F075
:100ACC00020F76D0924B5B6813F00C0F5FD0904BFB
:100ADC005B6803F00C03082B54D02369002B00F047
:100AEC008A808C4B01221A60FFF76CFB0546884B01
:100AFC001B6813F0020F75D1FFF764FB401B022833
:100B0C00F5D903208BE1824A136843F480331360D8
:100B1C00636843B3FFF756FB05467D4B1B6813F424
:100B2C00003FCBD1FFF74EFB401B6428F5D90320C7
:100B3C0075E1B3F5A02F09D0754B1A6822F48032F9
:100B4C001A601A6822F480221A60E1E703F18043EC
:100B5C00A3F53C331A6842F480221A601A6842F4F6
:100B6C0080321A60D4E7FFF72DFB0546684B1B68F3
:100B7C0013F4003FA2D0FFF725FB401B6428F5D9E6
:100B8C0003204CE1624B5B6813F4803FA5D1604BB2
:100B9C001B6813F0020F04D02369012B01D0012034
:100BAC003DE15B4A136823F0F803616943EAC10332
:100BBC001360236813F0080F32D0A369002B5BD0AD
:100BCC00554B01221A60FFF7FDFA0546504B5B6A44
:100BDC0013F0020F21D1FFF7F5FA401B0228F5D9CB
:100BEC0003201CE14A4A136823F0F803616943EAC5
:100BFC00C1031360DDE7474B00221A60FFF7E2FAEE
:100C0C000546434B1B6813F0020FD2D0FFF7DAFAFC
:100C1C00401B0228F5D9032001E10120FFF704FF56
:100C2C00236813F0040F00F09780394BDB6913F045
:100C3C00805F33D1364BDA6942F08052DA61DB697E
:100C4C0003F080530193019B0125344B1B6813F473
:100C5C00807F25D0E368012B36D0002B4CD103F1DB
:100C6C00804303F504331A6A22F001021A621A6AED
:100C7C0022F004021A622CE0274B00221A60FFF7C4
:100C8C00A1FA0546224B5B6A13F0020FC8D0FFF79E
:100C9C0099FA401B0228F5D90320C0E00025D4E7BF
:100CAC001E4A136843F480731360FFF78BFA0646F1
:100CBC001A4B1B6813F4807FCCD1FFF783FA801B8F
:100CCC006428F5D90320AAE0114A136A43F0010302
:100CDC001362E36873B3FFF775FA06460C4B1B6A95
:100CEC0013F0020F37D1FFF76DFA801B41F28833F6
:100CFC009842F3D9032092E0052B11D0044B1A6AC9
:100D0C0022F001021A621A6A22F004021A62E0E767
:100D1C000010024000004242800442420070004039
:100D2C00414B1A6A42F004021A621A6A42F001023A
:100D3C001A62CEE7FFF746FA06463B4B1B6A13F0E6
:100D4C00020F08D0FFF73EFA801B41F2883398421D
:100D5C00F3D9032063E0E5B9E369002B5ED0324A96
:100D6C00526802F00C02082A5BD0022B17D02F4BD2
:100D7C0000221A60FFF726FA04462B4B1B6813F06F
:100D8C00007F47D0FFF71EFA001B0228F5D903207D
:100D9C0045E0254AD36923F08053D361DCE7234B2C
:100DAC0000221A60FFF70EFA05461F4B1B6813F062
:100DBC00007F06D0FFF706FA401B0228F5D9032066
:100DCC002DE0236AB3F5803F1AD017494B6823F402
:100DDC007413226A606A024313434B60134B012263
:100DEC001A60FFF7EFF904460F4B1B6813F0007FF6
:100DFC000ED1FFF7E7F9001B0228F5D903200EE00E
:100E0C00094A536823F40033A1680B435360DCE7B1
:100E1C00002004E0002002E0012000E0002002B0ED
:100E2C0070BD0120FBE700BF001002406000424291
:100E3C0010B487B0164C94E80F000DF1180C0CE9A7
:100E4C000F00238AADF80430124B5B6803F00C02E0
:100E5C00082A1AD1C3F38342624412F8102C13F4FB
:100E6C00803F05D10C4800FB02F007B010BC704766
:100E7C00084B5B68C3F34043634413F8143C0748C6
:100E8C0000FB02F0B0FBF3F0EFE70448EDE700BF26
:100E9C00043300080010024000093D0000127A00E3
:100EAC00594B1B6803F007038B420CD2564A13684C
:100EBC0023F007030B431360136803F007038B4203
:100ECC0001D00120704770B5036813F0020F06D0F3
:100EDC004E4A536823F0F0038468234353600C4656
:100EEC000546036813F0010F52D04368012B23D041
:100EFC00022B28D0454A126812F0020F00F08280B3
:100F0C0042494A6822F0030213434B60FFF75AF937
:100F1C0006466B68012B1DD0022B2AD03B4B5B681D
:100F2C0013F00C0F34D0FFF74DF9801B41F28833CE
:100F3C009842F3D9032064E0344A126812F4003F5B
:100F4C00DED101205DE0314A126812F0007FD7D16A
:100F5C00012056E02D4B5B6803F00C03042B17D0DB
:100F6C00FFF730F9801B41F288339842F2D9032005
:100F7C0047E0264B5B6803F00C03082B08D0FFF707
:100F8C0021F9801B41F288339842F2D9032038E0D2
:100F9C001D4B1B6803F00703A3420CD91A4A1368B4
:100FAC0023F0070323431360136803F00703A342E2
:100FBC0001D0012025E02B6813F0040F06D0134A52
:100FCC00536823F4E063E9680B4353602B6813F018
:100FDC00080F07D00D4A536823F46053296943EA7C
:100FEC00C1035360FFF724FF084B5B68C3F3031383
:100FFC00074AD35CD840074B18600020FFF7A0F8D5
:10100C00002070BD0120FCE70020024000100240CF
:10101C001833000808000020014B1868704700BF07
:10102C000800002008B5FFF7F7FF044B5B68C3F31B
:10103C000223034AD35CD84008BD00BF0010024015
:10104C002833000808B5FFF7E7FF044B5B68C3F3D0
:10105C00C223034AD35CD84008BD00BF0010024035
:10106C002833000810B4036A046A24F001040462F3
:10107C00846924F0F00444EA021223F00A030B43BF
:10108C008261036210BC704710B4036A23F0100332
:10109C0003628469036A24F4704444EA023223F044
:1010AC00A00343EA01138261036210BC704783689A
:1010BC0023F0700341F0070119438160704710B4AD
:1010CC00846824F47F4442EA03230B432343836064
:1010DC0010BC70470268D36843F00103D360026808
:1010EC00136843F001031360002070470268D36853
:1010FC0023F00103D3600368196A41F21112114203
:10110C0008D1196A40F24442114203D11A6822F004
:10111C0001021A600020704790F83C30012B7DD002
:10112C0010B50446012380F83C30022380F83D3092
:10113C000268936823F47F4323F0770393600B6872
:10114C00402B57D010D9702B3ED01FD8502B47D0E6
:10115C00602B32D1CA6849680068FFF795FF60219F
:10116C002068FFF7A4FF28E0102B4DD008D9202BC6
:10117C004FD0302B21D130210068FFF798FF1CE0B5
:10118C00DBB900210068FFF792FF16E0B3F5805F32
:10119C000ED0B3F5005F10D1CB684A68896800683F
:1011AC00FFF78DFF2268936843F48043936004E05B
:1011BC000268936823F007039360012384F83D30A1
:1011CC00002084F83C0010BDCB684A688968006830
:1011DC00FFF775FF2268936843F077039360ECE7A1
:1011EC00CA6849680068FFF73DFF50212068FFF787
:1011FC005EFFE2E7CA6849680068FFF733FF4021E9
:10120C002068FFF754FFD8E710210068FFF74FFF65
:10121C00D3E720210068FFF74AFFCEE70220704792
:10122C00704770477047704710B5044603681A69D9
:10123C0012F0020F11D0DA6812F0020F0DD06FF01D
:10124C0002021A610123037703689B6913F0030FF1
:10125C0070D0FFF7E6FF0023237723681A6912F09A
:10126C00040F12D0DA6812F0040F0ED06FF00402E3
:10127C001A610223237723689B6913F4407F5FD0A4
:10128C002046FFF7CEFF0023237723681A6912F05C
:10129C00080F12D0DA6812F0080F0ED06FF00802A7
:1012AC001A61042323772368DB6913F0030F4ED0F4
:1012BC002046FFF7B6FF0023237723681A6912F044
:1012CC00100F12D0DA6812F0100F0ED06FF010025F
:1012DC001A61082323772368DB6913F4407F3DD020
:1012EC002046FFF79EFF0023237723681A6912F02C
:1012FC00010F03D0DA6812F0010F36D123681A6996
:10130C0012F0800F03D0DA6812F0800F34D123680A
:10131C001A6912F0400F03D0DA6812F0400F32D184
:10132C0023681A6912F0200F03D0DA6812F0200F2C
:10133C0030D110BDFFF774FF2046FFF773FF8AE72B
:10134C002046FFF76DFF2046FFF76CFF9BE720461A
:10135C00FFF766FF2046FFF765FFACE72046FFF777
:10136C005FFF2046FFF75EFFBDE76FF001021A61D9
:10137C00204601F007FBC1E76FF080021A6120469E
:10138C0000F08DF8C3E76FF040021A612046FFF7BA
:10139C004AFFC5E76FF020021A61204600F07EF884
:1013AC00C7E7000003681B4A90420AD0B0F1804F97
:1013BC0007D0A2F59432904203D002F5806290429D
:1013CC0003D123F070034A681343124A90420AD0A7
:1013DC00B0F1804F07D0A2F59432904203D002F5C1
:1013EC008062904203D123F44073CA68134323F004
:1013FC0080034A69134303608B68C3620B68836282
:10140C00044B984202D00123436170470B6903637C
:10141C00F9E700BF002C0140A8B110B5044690F8C4
:10142C003D305BB1022384F83D30211D2068FFF76D
:10143C00B9FF012384F83D30002010BD80F83C300A
:10144C0000F0CAFBEEE70120704790F83C30012B0E
:10145C0022D030B4012280F83C20022380F83D30A9
:10146C000468636823F070036360046863680D6844
:10147C002B4363600468A36823F08003A3600468B3
:10148C00A36849680B43A36080F83D20002380F8D3
:10149C003C30184630BC704702207047704770478C
:1014AC002DE9F84305460268136923F44053C168DB
:1014BC000B43136183680269134342691343016848
:1014CC00CA6822F4B05222F00C021343CB600268BB
:1014DC00536923F4407381690B4353610268594B80
:1014EC009A4257D0FFF79EFD00EB800000EB800086
:1014FC006C68A400B0FBF4F4534FA7FB04346409EC
:10150C002601FFF78FFD00EB800000EB80006C687C
:10151C00A400B0FBF4F9FFF785FD00EB800000EBB5
:10152C0080006C68A400B0FBF4F4A7FB04346409DD
:10153C004FF0640808FB149424013234A7FB0434E4
:10154C00640904F0F0043444FFF76CFD00EB8000F8
:10155C0000EB80006E68B600B0FBF6F6FFF762FD9C
:10156C0000EB800000EB80006B689B00B0FBF3F09D
:10157C00A7FB0030400908FB10684FEA081808F177
:10158C003208A7FB0837C7F343172B6827449F6023
:10159C00BDE8F883FFF756FD00EB800000EB800000
:1015AC006C68A400B0FBF4F4274FA7FB0434640967
:1015BC002601FFF747FD00EB800000EB80006C6814
:1015CC00A400B0FBF4F9FFF73DFD00EB800000EB4D
:1015DC0080006C68A400B0FBF4F4A7FB043464092D
:1015EC004FF0640808FB149424013234A7FB043434
:1015FC00640904F0F0043444FFF724FD00EB800090
:10160C0000EB80006E68B600B0FBF6F6FFF71AFD33
:10161C0000EB800000EB80006B689B00B0FBF3F0EC
:10162C00A7FB0030400908FB10684FEA081808F1C6
:10163C003208A7FB0837C7F343172B6827449F6072
:10164C00A6E700BF003801401F85EB512DE9F041A2
:10165C0005460F4616469846069C2B681B6837EACB
:10166C0003030CBF01230023B3421DD1B4F1FF3F90
:10167C00F3D02CB1FEF7A6FDA0EB0800A042ECD9EC
:10168C002A68D36823F4D073D3602A68536923F093
:10169C0001035361202385F8393085F83A30002353
:1016AC0085F83830032000E00020BDE8F08158B305
:1016BC0010B5044690F839300BB3242384F8393034
:1016CC002268D36823F40053D3602046FFF7E8FE6A
:1016DC002268136923F4904313612268536923F041
:1016EC002A0353612268D36843F40053D36000206B
:1016FC00E063202384F8393084F83A3010BD80F848
:10170C00383000F0A1FAD8E7012070472DE9F041FC
:10171C0082B01E4690F83930DBB2202B55D10446EE
:10172C000D469046002955D0002A55D090F83830F7
:10173C00012B53D0012380F838300023C3632123BD
:10174C0080F83930FEF73EFD0746A4F82480A4F853
:10175C00268010E000963B46002280212046FFF7B1
:10176C0075FF00283CD12B882268C3F30803536013
:10177C002369C3B90235E38C9BB2B3B1E38C013B53
:10178C009BB2E384A368B3F5805FE3D000963B463D
:10179C00002280212046FFF759FF18BB2A782368C6
:1017AC005A600135E7E70135E5E700963B46002234
:1017BC0040212046FFF74AFF0346A8B9202284F8AF
:1017CC003920002284F8382000E00223184602B0A9
:1017DC00BDE8F0810123F9E70123F7E70223F5E7E0
:1017EC000323F3E70323F1E70323EFE730B591B0CD
:1017FC00012206924FF480330793002408940A9236
:10180C0002250D950E934FF4E0130F9306A8FFF7E6
:10181C0021F90F230193029503944FF480630493F1
:10182C000594294601A8FFF73BFBFFF7F5FB084B96
:10183C00A3FB00308009FEF71DFD0420FEF730FDF0
:10184C00224621464FF0FF30FEF7D4FC11B030BDDC
:10185C00D34D621008B50948094B0360094B43602E
:10186C0000238360C3604FF4804202614361836153
:10187C00C3610362FEF762FF08BD00BF6001002078
:10188C0000580040A086010030B587B00F4C4FF0D7
:10189C008043236048F69F4363600025A5601323B3
:1018AC00E3602561A5612046FFF7B6FD06A94FF45C
:1018BC00805341F8103D2046FFF72EFC0095019512
:1018CC0069462046FFF7C1FD07B030BDF40100208A
:1018DC0030B587B00F4C104B236048F69F436360C4
:1018EC000025A5600138E0602561A5612046FFF761
:1018FC0093FD06A94FF4805341F8103D2046FFF7A5
:10190C000BFC0095019569462046FFF79EFD07B03C
:10191C0030BD00BF200100200008004008B5084879
:10192C00084B03604FF4E133436000238360C360D2
:10193C0003610C2242618361C361FFF7B8FE08BDED
:10194C00B40100200038014070B588B0254B9A696D
:10195C0042F010029A619A6902F010020092009A09
:10196C009A6942F020029A619A6902F0200201926F
:10197C00019A9A6942F004029A619A6902F004028F
:10198C000292029A9A6942F008029A619B6903F0EA
:10199C0008030393039B144E00224FF4005130466E
:1019AC00FEF785FD4FF400530493012405940025A4
:1019BC0006950223079304A93046FEF787FC6023A3
:1019CC0004930595069404A90848FEF77FFC382378
:1019DC0004930595069404A90548FEF777FC08B016
:1019EC0070BD00BF00100240001001400008014013
:1019FC00000C014008B5FEF7C7FBFFF7F7FEFFF739
:101A0C00A3FFFFF741FFFFF789FFFFF723FF08BD97
:101A1C0000B585B000F0F0030001C0B243F00C0239
:101A2C008DF80C2043F008038DF80D3040F00C03BA
:101A3C008DF80E3040F008008DF80F0064230093F1
:101A4C00042303AA4E210348FEF72CFF05B05DF8D2
:101A5C0004FB00BF6001002000B585B000F0F0036E
:101A6C000001C0B243F00D028DF80C2043F00903C5
:101A7C008DF80D3040F00D038DF80E3040F009005C
:101A8C008DF80F0064230093042303AA4E2103480E
:101A9C00FEF708FF05B05DF804FB00BF60010020F5
:101AAC0008B50220FFF7B4FF2820FFF7B1FF0C2088
:101ABC00FFF7AEFF8020FFF7ABFF08BD10B5044663
:101ACC0002E00134FFF7C8FF20780028F9D110BDDF
:101ADC0008B5FFF78FFF0220FFF7FAFE0248FFF769
:101AEC00F9FAFFF7DDFFFEE72001002000B583B017
:101AFC00244B9A6942F001029A619A6902F0010240
:101B0C000092009ADA6942F08052DA61DB6903F0E4
:101B1C0080530193019B0320FEF75AFB00221146D0
:101B2C006FF00B00FEF766FB002211466FF00A0007
:101B3C00FEF760FB002211466FF00900FEF75AFB1E
:101B4C00002211466FF00400FEF754FB00221146F0
:101B5C006FF00300FEF74EFB002211466FF0010000
:101B6C00FEF748FB002211464FF0FF30FEF742FB18
:101B7C00054A536823F0E06343F00073536003B0ED
:101B8C005DF804FB001002400000014002680F4B9E
:101B9C009A4200D0704700B587B04FF4406302936F
:101BAC00122303930323059302A90948FEF78EFB26
:101BBC00084BDA6942F48002DA61DB6903F48003D2
:101BCC000193019B07B05DF804FB00BF0058004077
:101BDC00000C01400010024000B583B00368B3F163
:101BEC00804F05D0164A934216D003B05DF804FB23
:101BFC0003F50433DA6942F00102DA61DB6903F0C0
:101C0C0001030093009B002211461C20FEF7F2FA00
:101C1C001C20FEF723FBE8E70A4BDA6942F00402CA
:101C2C00DA61DB6903F004030193019B00220121BB
:101C3C001E20FEF7DFFA1E20FEF710FBD5E700BFD3
:101C4C0000080040001002400268144B9A4200D079
:101C5C00704710B586B003F558439A6942F4804238
:101C6C009A619B6903F480430193019B4FF40073C9
:101C7C0002930223039303230593094C02A92046E4
:101C8C00FEF724FB4FF48063029300230393049329
:101C9C0002A92046FEF71AFB06B010BD0038014021
:101CAC00000801407047FEE7FEE7FEE7FEE77047DD
:101CBC007047704708B5FEF779FAFEF702FB08BDCE
:101CCC0008B50248FFF7B0FA08BD00BFF4010020C8
:101CDC0008B50248FFF7A8FA08BD00BF2001002094
:101CEC000F4B1A6842F001021A6059680D4A0A40FB
:101CFC005A601A6822F0847222F480321A601A68D0
:101D0C0022F480221A605A6822F4FE025A604FF4C0
:101D1C001F029A60044B4FF000629A60704700BF3C
:101D2C00001002400000FFF800ED00E008B5402173
:101D3C003448FEF7B5FB60B9334A1368591C11607F
:101D4C00324A1268934204D8304A13795B001371FB
:101D5C002EE040212B48FEF7A3FBE8B92A4A136872
:101D6C00591C1160294A1268934215D902F59673D1
:101D7C0099421DD30132244B1A604FF4005100F1EB
:101D8C00804000F58830FEF798FB0A231922204981
:101D9C002048FFF7BBFC0BE040211A48FEF780FB04
:101DAC0001280AD0184B00221A60184BFF221A7116
:101DBC00164B1B79012B0DD008BD134B1A68134B16
:101DCC001B689A42EED8114A13795B0043F0010369
:101DDC001371EDE70C4B5B6863B90F48FFF77AF9A9
:101DEC00094B01225A60084B00221A60074BFF2254
:101DFC001A71E1E70848FFF779F9034B00225A60A2
:101E0C00F1E700BF00080140B80000200C000020E2
:101E1C0030330008B4010020F401002008B5202163
:101E2C003E48FEF73DFB60B93D4A9368591C9160F2
:101E3C003C4A9268934204D83A4A137B5B00137372
:101E4C002EE020213548FEF72BFBE8B9344A936885
:101E5C00591C9160334A9268934215D902F59673D6
:101E6C0099421DD301322E4B9A604FF4005100F170
:101E7C00804000F58830FEF720FB0A2317222A4900
:101E8C002A48FFF743FC0BE020212448FEF708FB0F
:101E9C0001280AD0224B00229A60224BFF221A738F
:101EAC00204B1B7B012B0DD008BD1D4B9A681D4B85
:101EBC009B689A42EED81B4A137B5B0043F00103EC
:101ECC001373EDE71A48FFF711F9154A0023D36095
:101EDC001361536117490B6017490B6017490B606D
:101EEC0017490B6017490B6017490B6017490B60BA
:101EFC0017490B6017490B6053609361D3611362F0
:101F0C0053629362D362136353639363D363136417
:101F1C0053649360034BFF221A73C5E7000801401A
:101F2C00B80000200C0000204C330008B401002045
:101F3C00F401002050020020540200203C0200203A
:101F4C0038020020740200203402002070020020AD
:101F5C00780200206C020020F0B587B00821774889
:101F6C00FEF79EFA60B9764A936C591C9164754AD7
:101F7C001269934204D8734A137D5B0013752EE0EB
:101F8C0008216E48FEF78CFAE8B96D4A936C591C1F
:101F9C0091646C4A1269934215D902F59673994271
:101FAC001DD30132664B9A644FF4005100F180400E
:101FBC0000F58830FEF781FA0A2312226249634841
:101FCC00FFF7A4FB0BE008215C48FEF769FA012837
:101FDC000BD05B4B00229A645A4BFF221A75594B5B
:101FEC001B7D012B0ED007B0F0BD554B9A6C554B99
:101FFC001B699A42EDD8534A137D5B0043F00103F1
:10200C001375ECE74E4B5C695A6AA21A50490A6088
:10201C001869996A411A4F4D2960DD68DB6AEB1A21
:10202C004D4E3360002B61DB4A4B1B68002B64DB8D
:10203C00474B1B68002B67DB464B1B68002B67DB91
:10204C00454B1B68002B67DB3D4B5C629862DD6285
:10205C005B68012B64D03A4B00229A61384B9A6929
:10206C00384B9B699A4260D2394B1968394B1C68C2
:10207C00394B1F68394880FB0135CB17C3EBA503DF
:10208C00374D80FB076CFE17C6EBAC0606EB860ED5
:10209C004FEA4E0CA7EB0C070497039680FB040643
:1020AC00E017C0EBA60000EB80077E00A41B029497
:1020BC00019003EB83046000091A0091294928461A
:1020CC0000F0EEFC214C0A230E2227492046FFF794
:1020DC001DFB0A230D2229462046FFF717FB184B40
:1020EC0000229A64174BFF221A757CE70139194EAE
:1020FC003160643318490B6096E7013A14490A6061
:10210C003C33144A136093E7114B00221A6093E797
:10211C00104B00221A6093E70F4B00221A6093E7D2
:10212C00074A93690133936198E7054A93610A233F
:10213C0012220E490548FFF7E9FAD0E7000C0140DE
:10214C00B80000200C00002064330008B40100200B
:10215C003C02002054020020500200206766666694
:10216C0040020020783300088C3300089C330008B0
:10217C00F0B587B010217B48FEF792F970B97A4A16
:10218C00D36C591CD164794AD269934206D8774AE8
:10219C0092F820305B0082F820302FE0102171483B
:1021AC00FEF77EF9E8B9704AD36C591CD1646F4ABA
:1021BC00D269934215D902F5967399421ED3013216
:1021CC00694BDA644FF4005100F1804000F588301F
:1021DC00FEF773F90A23122265496648FFF796FA4F
:1021EC000CE010215F48FEF75BF901280DD05E4B27
:1021FC000022DA645D4BFF2283F820205B4B93F8BE
:10220C002030012B10D007B0F0BD574BDA6C574B78
:10221C00DB699A42EBD8554A92F820305B0043F0C8
:10222C00010382F82030E9E74F4B5C691A6BA21A64
:10223C0051490A601869596B411A504D2960DD6883
:10224C009B6BEB1A4E4E3360002B62DB4B4B1B68C7
:10225C00002B65DB484B1B68002B68DB474B1B686E
:10226C00002B68DB464B1B68002B68DB3E4B1C636A
:10227C0058639D635B68012B65D03B4B0022DA6190
:10228C00394BDA69394B9B699A4261D23A4B1968DE
:10229C003A4B1C683A4B1F683A4880FB0135CB1708
:1022AC00C3EBA503384D80FB076CFE17C6EBAC06E1
:1022BC0006EB860E4FEA4E0CA7EB0C070497039621
:1022CC0080FB0406E017C0EBA60000EB80077E0045
:1022DC00A41B0294019003EB83046000091A009183
:1022EC002A49284600F0DCFB224C0A230E222849FE
:1022FC002046FFF70BFA0A230D2229462046FFF74A
:10230C0005FA194B0022DA64184BFF2283F82020BF
:10231C0079E70139194E3160643319490B6095E73F
:10232C00013A15490A603C33144A136092E7124B88
:10233C0000221A6092E7114B00221A6092E7104BB0
:10234C0000221A6092E7084AD3690133D36197E7F8
:10235C00054AD3610A2312220E490648FFF7D6F923
:10236C00CFE700BF000C0140B80000200C0000209B
:10237C00B0330008B40100203402002074020020A5
:10238C003802002067666666400200207833000839
:10239C00C4330008D4330008F0B587B020217B4843
:1023AC00FEF77EF870B97A4A136D591C1165794A9B
:1023BC00526A934206D8774A92F828305B0082F82A
:1023CC0028302FE020217148FEF76AF8E8B9704AEE
:1023DC00136D591C11656F4A526A934215D902F557
:1023EC00967399421ED30132694B1A654FF4005112
:1023FC0000F1804000F58830FEF75FF80A231222C6
:10240C0065496648FFF782F90CE020215F48FEF72A
:10241C0047F801280DD05E4B00221A655D4BFF2258
:10242C0083F828205B4B93F82830012B10D007B091
:10243C00F0BD574B1A6D574B5B6A9A42EBD8554A15
:10244C0092F828305B0043F0010382F82830E9E76A
:10245C004F4B5C69DA6BA21A51490A601869196C06
:10246C00411A504D2960DD685B6CEB1A4E4E33609F
:10247C00002B62DB4B4B1B68002B65DB484B1B684E
:10248C00002B68DB474B1B68002B68DB464B1B683B
:10249C00002B68DB3E4BDC6318645D645B68012BCE
:1024AC0065D03B4B00221A62394B1A6A394B9B6937
:1024BC009A4261D23A4B19683A4B1C683A4B1F68E6
:1024CC003A4880FB0135CB17C3EBA503384D80FB95
:1024DC00076CFE17C6EBAC0606EB860E4FEA4E0CED
:1024EC00A7EB0C070497039680FB0406E017C0EBE0
:1024FC00A60000EB80077E00A41B0294019003EB66
:10250C0083046000091A00912A49284600F0C8FA91
:10251C00224C0A230E2228492046FFF7F7F80A23FB
:10252C000D2229462046FFF7F1F8194B00221A65B7
:10253C00184BFF2283F8282079E70139194E3160B6
:10254C00643319490B6095E7013A15490A603C332D
:10255C00144A136092E7124B00221A6092E7114B57
:10256C0000221A6092E7104B00221A6092E7084A88
:10257C00136A0133136297E7054A13620A23122286
:10258C000E490648FFF7C2F8CFE700BF000C014028
:10259C00B80000200C000020E8330008B401002033
:1025AC006C020020780200207002002067666666CC
:1025BC004002002078330008FC3300080C3400087B
:1025CC002DE9F04186B0B54B9A69B54B9B699A429F
:1025DC0080F040818020FFF71BFAB04FD7F814C071
:1025EC003869FE68AF4CA4FB0C32D20802EB8201B6
:1025FC004B00AD4DA4FB06E1C90801EB81084FEA85
:10260C00480EA6EB0E0603960291A4FB0061C908C6
:10261C0001EB810E4FEA4E06801B01900091ACEB52
:10262C000303A249284600F03BFA2846FFF746FA76
:10263C00C020FFF7EDF99E4B19689E4B1E68D7F82A
:10264C000CC09D4880FB0132CB17C3EBA203BA69C7
:10265C00A4FB0C74E40804EB840E4FEA4E07ACEBBD
:10266C0007070497039480FB0604F017C0EBA40043
:10267C0000EB80077C00361B0296019003EB830471
:10268C006000091A00918D49284600F009FA284685
:10269C00FFF714FA814BDA69814B9B699A4280F0FF
:1026AC0015818020FFF7B4F97C4FD7F814C0386936
:1026BC00FE687C4CA4FB0C32D20802EB82014B006E
:1026CC00794DA4FB06E1C90801EB81084FEA480EDD
:1026DC00A6EB0E0603960291A4FB0061C90801EB60
:1026EC00810E4FEA4E06801B01900091ACEB030368
:1026FC006E49284600F0D4F92846FFF7DFF99420FC
:10270C00FFF786F96A4B19686A4B1E68D7F80CC03C
:10271C00694880FB0132CB17C3EBA203FA69A4FB17
:10272C000C74E40804EB840E4FEA4E07ACEB07077D
:10273C000497039480FB0604F017C0EBA40000EB95
:10274C0080077C00361B0296019003EB830460002B
:10275C00091A00915A49284600F0A2F92846FFF7B9
:10276C00ADF94E4B1A6A4E4B9B699A4280F0D2805F
:10277C008020FFF74DF9494FD7F814C03869FE682F
:10278C00484CA4FB0C32D20802EB82014B00464DA4
:10279C00A4FB06E1C90801EB81084FEA480EA6EB41
:1027AC000E0603960291A4FB0061C90801EB810E91
:1027BC004FEA4E06801B01900091ACEB03033B49A2
:1027CC00284600F06DF92846FFF778F9D420FFF77A
:1027DC001FF9374B1968374B1E68D7F80CC03648B1
:1027EC0080FB0132CB17C3EBA2033A6AA4FB0C7437
:1027FC00E40804EB840E4FEA4E07ACEB0707049792
:10280C00039480FB0604F017C0EBA40000EB8007D8
:10281C007C00361B0296019003EB83046000091ABE
:10282C0000912849284600F03BF92846FFF746F965
:10283C001A4B9A691A4B9B699A4208D3174AD26968
:10284C00934204D8154A126A934240F2878006B02C
:10285C00BDE8F081C020FFF7DBF8164B1B680F4A70
:10286C00D068154981FB0321DA17C2EBA10202EBF8
:10287C0082014D000C4C0B49A1FB0061C90801EB16
:10288C0081077E00801B019000915B1B0E49204646
:10289C0000F006F92046FFF711F9FBE6B80000201E
:1028AC000C000020CDCCCCCC5802002020340008E9
:1028BC003C0200205402002067666666383400082B
:1028CC006834000898340008503400089420FFF74E
:1028DC009FF8244B1B68244AD068244981FB0321B0
:1028EC00DA17C2EBA10202EB82014D00204C214908
:1028FC00A1FB0061C90801EB81077E00801B0190E0
:10290C0000915B1B1C49204600F0CAF82046FFF7DB
:10291C00D5F826E7D420FFF77BF8124B1B68124A38
:10292C00D068124981FB0321DA17C2EBA10202EB3A
:10293C0082014D000E4C0F49A1FB0061C90801EB4F
:10294C0081077E00801B019000915B1B0B49204688
:10295C0000F0A6F82046FFF7B1F869E70848FEF743
:10296C00C5FB74E754020020B80000206766666659
:10297C0058020020CDCCCCCC80340008B0340008F8
:10298C00F401002008B50368B3F1804F04D002684D
:10299C001C4B9A4220D008BD1B4AD3680133D3602C
:1029AC00632B05D91346126901321A610022DA60D1
:1029BC00154B1B693B2B05D9134B5A6901325A61D4
:1029CC0000221A61104B5B69632BE0D90E4B00227D
:1029DC00DA601A615A61DAE7FFF7A8F9FFF71EFA15
:1029EC00FFF7BAFAFFF7C4FBFFF7D6FC064A536DA4
:1029FC00013353654A2BCED9FFF7E2FD024B00227F
:102A0C005A65C8E700080040B8000020002103E028
:102A1C000B4B5B58435004310A480B4B42189A42FB
:102A2C00F6D30A4A02E0002342F8043B084B9A42D0
:102A3C00F9D3FFF755F900F00FF8FFF749F8704795
:102A4C0004350008000000209C0000209C000020A1
:102A5C0080020020FEE7000070B500250C4E0D4CE6
:102A6C00A41BA410A54209D100F03AFC00250A4E83
:102A7C000A4CA41BA410A54205D170BD56F82530F4
:102A8C0098470135EEE756F8253098470135F2E7BF
:102A9C00FC340008FC340008FC3400080035000845
:102AAC000EB46FF0004100B59CB01DAB02900690C7
:102ABC00079104910848094953F8042B05910068C3
:102ACC0002A9019300F066F80022029B1A701CB058
:102ADC005DF804EB03B07047380000200802FFFFDC
:102AEC002DE9F0478E6882469E420C4690469946E8
:102AFC0037D88A8912F4906F31D00223256809697E
:102B0C006F1A656905EB450595FBF3F509F10103B2
:102B1C003B449D4238BF1D46530530D5294600F035
:102B2C0037FB064650B90C234FF0FF30CAF8003083
:102B3C00A38943F04003A381BDE8F0873A4621699D
:102B4C0000F0B6FAA38923F4906343F08003A381C9
:102B5C0026613E4426604E466561ED1BA5604E45E0
:102B6C0000D94E4632464146206800F0ACFAA368C4
:102B7C0000209B1BA36023681E442660DCE72A46CA
:102B8C0000F060FB06460028E2D12169504600F0B7
:102B9C00B3FAC8E72DE9F04F1D468B899DB01F068F
:102BAC0080460C4616460FD50B696BB9402100F0D8
:102BBC00EFFA2060206128B90C23C8F800304FF0E0
:102BCC00FF30C8E0402363610023099320238DF874
:102BDC00293030234FF0010B8DF82A3003953746FE
:102BEC003D4615F8013B0BB1252B3ED1B7EB060A40
:102BFC000BD05346324621464046FFF771FF013059
:102C0C0000F0A480099B534409933B78002B00F0FF
:102C1C009D8000234FF0FF32CDE9052304930793E9
:102C2C008DF853301A932F46052217F8011B504884
:102C3C0000F030FA049BD0B9D90644BF20228DF89D
:102C4C0053201A0744BF2B228DF853202A782A2AA6
:102C5C0015D02F4600200A25079A394611F8013B5A
:102C6C00303B092B4DD9B8B10FE02F46B8E7404A9D
:102C7C003D46801A0BFA00F018430490D3E7039AF0
:102C8C00111D12680391002A01DB079204E05242E5
:102C9C0043F00203079204933B782E2B0CD17B78E4
:102CAC002A2B33D1039B02371A1D1B680392002B6E
:102CBC00B8BF4FF0FF3305932E4D032239782846C9
:102CCC0000F0E8F938B14023401B03FA00F0049BF4
:102CDC000137034304933978062227487E1C8DF86C
:102CEC00281000F0D7F9002838D0244B13BB039BD5
:102CFC00073323F0070308330393099B4B440993D1
:102D0C006DE705FB023201200F46A6E700230A25DA
:102D1C00194601370593384610F8012B303A092A29
:102D2C0003D9002BC8D00591C6E705FB012101236F
:102D3C000746F0E703AB00932246114B04A940462B
:102D4C00AFF30080B0F1FF3F8146D6D1A3895B067B
:102D5C003FF535AF09981DB0BDE8F08F03AB00937C
:102D6C002246074B04A9404600F082F8EAE700BF70
:102D7C00C8340008CE340008D2340008000000002B
:102D8C00ED2A00082DE9F04791461F468A680B6929
:102D9C0006469342B8BF1346C9F8003091F8432059
:102DAC000C46DDF8208012B10133C9F800302368DD
:102DBC00990642BFD9F800300233C9F800302568B3
:102DCC0015F0060507D104F1190AE368D9F80020BB
:102DDC009B1AAB4229DC94F843302268003318BFAD
:102DEC00012392062ED404F1430239463046C047E3
:102DFC00013021D02368E56803F00603042B18BFCB
:102E0C000025D9F800204FF0000908BFAD1AA368BF
:102E1C00226908BF25EAE5759342C4BF9B1AED18D9
:102E2C001A344D451AD1002008E001235246394688
:102E3C003046C047013003D14FF0FF30BDE8F0877A
:102E4C000135C2E73020E11881F843005A1C94F890
:102E5C0045102244023382F84310C4E70123224672
:102E6C0039463046C0470130E6D009F10109D8E7B0
:102E7C002DE9F04301F1430C0C46097E85B06E2917
:102E8C001746064698460C9A00F0B38022D8632960
:102E9C0036D00AD8002900F0B980582900F0838078
:102EAC0004F1420584F8421032E0642901D069290A
:102EBC00F6D120681368050603F104012AD51B68B6
:102ECC001160002B03DA2D225B4284F843206F48FB
:102EDC000A2239E0732900F09D8008D86F2920D090
:102EEC007029DDD1236843F02003236003E07529AA
:102EFC0017D07829D4D17823654884F8453055E02B
:102F0C00136804F14205191D1B68116084F84230E6
:102F1C0001238CE01B6810F0400F116018BF1BB22E
:102F2C00CFE713682568181D1060280601D51B68AB
:102F3C0002E06806FBD51B886F2914BF0A22082201
:102F4C005248002184F843106568002DA560C0F23A
:102F5C009580216821F004012160002B3DD1002DCA
:102F6C0040F08E806546082A0BD12368DB0708D514
:102F7C00236962689A42DEBF302305F8013C05F1F3
:102F8C00FF35ACEB05032361CDF800803B4603AA6B
:102F9C0021463046FFF7F6FE01304DD14FF0FF30A1
:102FAC0005B0BDE8F083394884F8451013682168F2
:102FBC001D1D1B6815600A060BD5CA0744BF41F0DE
:102FCC00200121601BB9226822F02002226010220D
:102FDC00B7E74D0648BF9BB2EFE76546B3FBF2F18E
:102FEC0002FB1133C35C05F8013D0B460029F5D1FA
:102FFC00B9E713682568181D6169106028061B68FD
:10300C0001D5196002E06A06FBD5198000236546DC
:10301C002361B9E71368191D11601D6862680021EE
:10302C00284600F037F808B1401B606063682361E4
:10303C00002384F84330A7E723692A4639463046F3
:10304C00C0470130AAD023689B0713D4E068039BC8
:10305C009842B8BF1846A3E701234A463946304682
:10306C00C04701309AD00135E368039A9B1AAB42F2
:10307C00F2DCEBE7002504F11909F5E7002BACD1E4
:10308C00037804F1420584F842306CE7D934000827
:10309C00EA34000810B5C9B202449042034601D18B
:1030AC00002303E01C7801308C42F6D1184610BD89
:1030BC0010B5431E0A44914200D110BD11F8014BCA
:1030CC0003F8014FF7E7884210B501EB020307D86C
:1030DC00421E99420AD011F8014B02F8014FF8E751
:1030EC008342F5D98118D21AD34200D110BD13F8FE
:1030FC00014D01F8014DF7E738B50546002943D0DD
:10310C0051F8043C0C1F002BB8BFE41800F0D0F8A9
:10311C001E4A1368104633B9636014602846BDE834
:10312C00384000F0C6B8A3420BD92168621893420C
:10313C0001BF1A685B685218226063600460EDE797
:10314C0013465A680AB1A242FAD919685818A04213
:10315C000BD120680144581882421960DED11068E6
:10316C005268014419605A60D8E702D90C232B60CD
:10317C00D4E7206821188A4201BF116852680918E7
:10318C00216062605C60C9E738BD00BF100100209F
:10319C0070B5CD1C25F0030508350C2D38BF0C255A
:1031AC00002D064601DBA94203D90C233360002015
:1031BC0070BD00F07DF8214A1468214691B9204C6D
:1031CC0023681BB9304600F063F82060294630466E
:1031DC0000F05EF8431C24D10C233046336000F021
:1031EC0068F8E4E70B685B1B18D40B2B0FD90B604A
:1031FC00CC18CD50304600F05CF804F10B00231DC8
:10320C0020F00700C31AD3D05A42E250D0E74B68E3
:10321C008C4216BF636013600C46EBE70C464968A2
:10322C00CCE7C41C24F00304A04205D0211A30467C
:10323C0000F02EF80130CFD02560DBE71001002024
:10324C0014010020F8B5074614460E4621B9BDE816
:10325C00F8401146FFF79CBF22B9FFF74DFF2546FA
:10326C002846F8BD00F026F8A0420FD22146384679
:10327C00FFF78EFF05460028F2D031462246FFF7B5
:10328C0017FF31463846FFF737FFE9E73546E7E7E2
:10329C0038B50023054C05460846236000F012F8AB
:1032AC00431C02D1236803B12B6038BD7C02002083
:1032BC007047704751F8043C181F002BBCBF0B58CB
:1032CC00C0187047044B0246196809B903491960C4
:1032DC00186802441A607047180100208002002010
:1032EC00F8B500BFF8BC08BC9E467047F8B500BFE7
:0832FC00F8BC08BC9E467047B7
:1033040002030405060708090A0B0C0D0E0F101022
:10331400010200000000000000000000010203049C
:103324000607080900000000010203040A0D4572A3
:10333400723A203030312D427574746F6E5F52755D
:103344006E53746F700000000A0D4572723A20309B
:1033540030322D427574746F6E5F526573657400FC
:103364000A0D4572723A203030332D53656E736FF7
:10337400723100002564203D20256425643A2564CB
:1033840025643A25642564000A0D547261636B2038
:1033940041204C61703A00000A0D547261636B2045
:1033A40041203D2046494E49534800000A0D4572CC
:1033B400723A203030342D53656E736F72320000D0
:1033C4000A0D547261636B2042204C61703A000014
:1033D4000A0D547261636B2042203D2046494E49D8
:1033E400534800000A0D4572723A203030352D538F
:1033F400656E736F723300000A0D547261636B2043
:1034040043204C61703A00000A0D547261636B20D2
:1034140043203D2046494E495348000054494D45F8
:10342400523D256425643A256425643A256425645F
:1034340000000000547261636B4125643D256425DE
:10344400643A256425643A256425640041203D20BE
:1034540046494E49534820256425643A2564256429
:1034640000000000547261636B4225643D256425AD
:10347400643A256425643A256425640042203D208D
:1034840046494E49534820256425643A25642564F9
:1034940000000000547261636B4325643D2564257C
:1034A400643A256425643A256425640043203D205C
:1034B40046494E49534820256425643A25642564C9
:1034C40000000000232D302B2000686C4C00656642
:1034D4006745464700303132333435363738394161
:1034E4004243444546003031323334353637383977
:0834F40061626364656600007B
:0434FC003101000892
:043500000D010008B1
:10350400010000001000000000A24A04D0070000DF
:10351400FF000000D0070000FF000000D0070000FB
:10352400FF00000005000000D0070000FF000000BD
:10353400D0070000FF0000003C0000200000000055
:103544000000000000000000000000000000000077
:103554000000000000000000000000000000000067
:103564000000000000000000000000000000000057
:103574000000000000000000000000000000000047
:103584000000000000000000000000000000000037
:0C3594000000000000000000000000002B
:0400000508002A19AC
:00000001FF
